{
  "_format": "hh-sol-artifact-1",
  "contractName": "Upload",
  "sourceName": "contracts/Upload.sol",
  "abi": [
    {
      "inputs": [
        {
          "internalType": "address",
          "name": "_user",
          "type": "address"
        },
        {
          "internalType": "string",
          "name": "url",
          "type": "string"
        }
      ],
      "name": "add",
      "outputs": [],
      "stateMutability": "payable",
      "type": "function"
    },
    {
      "inputs": [
        {
          "internalType": "address",
          "name": "user",
          "type": "address"
        },
        {
          "internalType": "string",
          "name": "url",
          "type": "string"
        }
      ],
      "name": "allow",
      "outputs": [],
      "stateMutability": "nonpayable",
      "type": "function"
    },
    {
      "inputs": [
        {
          "internalType": "address",
          "name": "user",
          "type": "address"
        },
        {
          "internalType": "string",
          "name": "url",
          "type": "string"
        }
      ],
      "name": "disallow",
      "outputs": [],
      "stateMutability": "nonpayable",
      "type": "function"
    },
    {
      "inputs": [
        {
          "internalType": "address",
          "name": "_user",
          "type": "address"
        }
      ],
      "name": "display",
      "outputs": [
        {
          "internalType": "string[]",
          "name": "",
          "type": "string[]"
        }
      ],
      "stateMutability": "view",
      "type": "function"
    },
    {
      "inputs": [
        {
          "internalType": "address",
          "name": "sender",
          "type": "address"
        }
      ],
      "name": "getMessage",
      "outputs": [
        {
          "internalType": "string",
          "name": "",
          "type": "string"
        }
      ],
      "stateMutability": "view",
      "type": "function"
    },
    {
      "inputs": [
        {
          "internalType": "address",
          "name": "",
          "type": "address"
        }
      ],
      "name": "messages",
      "outputs": [
        {
          "internalType": "string",
          "name": "",
          "type": "string"
        }
      ],
      "stateMutability": "view",
      "type": "function"
    },
    {
      "inputs": [
        {
          "internalType": "address",
          "name": "_receiver",
          "type": "address"
        },
        {
          "internalType": "string",
          "name": "message",
          "type": "string"
        }
      ],
      "name": "sendMessage",
      "outputs": [],
      "stateMutability": "payable",
      "type": "function"
    },
    {
      "inputs": [],
      "name": "shareAccess",
      "outputs": [
        {
          "components": [
            {
              "internalType": "address",
              "name": "user",
              "type": "address"
            },
            {
              "internalType": "string",
              "name": "url",
              "type": "string"
            },
            {
              "internalType": "bool",
              "name": "access",
              "type": "bool"
            }
          ],
          "internalType": "struct Upload.Access[]",
          "name": "",
          "type": "tuple[]"
        }
      ],
      "stateMutability": "view",
      "type": "function"
    }
  ],
  "bytecode": "0x608060405234801561001057600080fd5b50611a92806100206000396000f3fe60806040526004361061007b5760003560e01c806394f44fea1161004e57806394f44fea1461013f578063bc8bef8114610168578063de6f24bb14610193578063eb39113f146101af5761007b565b80631ab579b71461008057806336d6da55146100a957806355448fe1146100c55780635fdd59f814610102575b600080fd5b34801561008c57600080fd5b506100a760048036038101906100a291906113cb565b6101ec565b005b6100c360048036038101906100be91906113cb565b6105d1565b005b3480156100d157600080fd5b506100ec60048036038101906100e79190611427565b6106fd565b6040516100f991906114dc565b60405180910390f35b34801561010e57600080fd5b5061012960048036038101906101249190611427565b6107ce565b60405161013691906114dc565b60405180910390f35b34801561014b57600080fd5b50610166600480360381019061016191906113cb565b61086e565b005b34801561017457600080fd5b5061017d610b29565b60405161018a9190611684565b60405180910390f35b6101ad60048036038101906101a891906113cb565b610cc8565b005b3480156101bb57600080fd5b506101d660048036038101906101d19190611427565b610d20565b6040516101e39190611768565b60405180910390f35b600160003373ffffffffffffffffffffffffffffffffffffffff1673ffffffffffffffffffffffffffffffffffffffff1681526020019081526020016000208160405161023991906117c6565b908152602001604051809103902060003373ffffffffffffffffffffffffffffffffffffffff1673ffffffffffffffffffffffffffffffffffffffff16815260200190815260200160002060009054906101000a900460ff166102d1576040517f08c379a00000000000000000000000000000000000000000000000000000000081526004016102c890611829565b60405180910390fd5b6000600160003373ffffffffffffffffffffffffffffffffffffffff1673ffffffffffffffffffffffffffffffffffffffff1681526020019081526020016000208260405161032091906117c6565b908152602001604051809103902060008473ffffffffffffffffffffffffffffffffffffffff1673ffffffffffffffffffffffffffffffffffffffff16815260200190815260200160002060006101000a81548160ff02191690831515021790555060005b600260008473ffffffffffffffffffffffffffffffffffffffff1673ffffffffffffffffffffffffffffffffffffffff168152602001908152602001600020805490508110156105cc57816040516020016103e091906117c6565b60405160208183030381529060405280519060200120600260008573ffffffffffffffffffffffffffffffffffffffff1673ffffffffffffffffffffffffffffffffffffffff168152602001908152602001600020828154811061044757610446611849565b5b9060005260206000209060030201600101604051602001610468919061196d565b6040516020818303038152906040528051906020012014801561053857503373ffffffffffffffffffffffffffffffffffffffff16600260008573ffffffffffffffffffffffffffffffffffffffff1673ffffffffffffffffffffffffffffffffffffffff16815260200190815260200160002082815481106104ee576104ed611849565b5b906000526020600020906003020160000160009054906101000a900473ffffffffffffffffffffffffffffffffffffffff1673ffffffffffffffffffffffffffffffffffffffff16145b156105b9576000600260008573ffffffffffffffffffffffffffffffffffffffff1673ffffffffffffffffffffffffffffffffffffffff16815260200190815260200160002082815481106105905761058f611849565b5b906000526020600020906003020160020160006101000a81548160ff0219169083151502179055505b80806105c4906119bd565b915050610385565b505050565b6000808373ffffffffffffffffffffffffffffffffffffffff1673ffffffffffffffffffffffffffffffffffffffff16815260200190815260200160002081908060018154018082558091505060019003906000526020600020016000909190919091509080519060200190610648929190611170565b5060018060008473ffffffffffffffffffffffffffffffffffffffff1673ffffffffffffffffffffffffffffffffffffffff1681526020019081526020016000208260405161069791906117c6565b908152602001604051809103902060003373ffffffffffffffffffffffffffffffffffffffff1673ffffffffffffffffffffffffffffffffffffffff16815260200190815260200160002060006101000a81548160ff0219169083151502179055505050565b6060600360008373ffffffffffffffffffffffffffffffffffffffff1673ffffffffffffffffffffffffffffffffffffffff1681526020019081526020016000208054610749906118a7565b80601f0160208091040260200160405190810160405280929190818152602001828054610775906118a7565b80156107c25780601f10610797576101008083540402835291602001916107c2565b820191906000526020600020905b8154815290600101906020018083116107a557829003601f168201915b50505050509050919050565b600360205280600052604060002060009150905080546107ed906118a7565b80601f0160208091040260200160405190810160405280929190818152602001828054610819906118a7565b80156108665780601f1061083b57610100808354040283529160200191610866565b820191906000526020600020905b81548152906001019060200180831161084957829003601f168201915b505050505081565b600160003373ffffffffffffffffffffffffffffffffffffffff1673ffffffffffffffffffffffffffffffffffffffff168152602001908152602001600020816040516108bb91906117c6565b908152602001604051809103902060003373ffffffffffffffffffffffffffffffffffffffff1673ffffffffffffffffffffffffffffffffffffffff16815260200190815260200160002060009054906101000a900460ff16610953576040517f08c379a000000000000000000000000000000000000000000000000000000000815260040161094a90611829565b60405180910390fd5b60018060003373ffffffffffffffffffffffffffffffffffffffff1673ffffffffffffffffffffffffffffffffffffffff168152602001908152602001600020826040516109a191906117c6565b908152602001604051809103902060008473ffffffffffffffffffffffffffffffffffffffff1673ffffffffffffffffffffffffffffffffffffffff16815260200190815260200160002060006101000a81548160ff021916908315150217905550600260008373ffffffffffffffffffffffffffffffffffffffff1673ffffffffffffffffffffffffffffffffffffffff16815260200190815260200160002060405180606001604052803373ffffffffffffffffffffffffffffffffffffffff16815260200183815260200160011515815250908060018154018082558091505060019003906000526020600020906003020160009091909190915060008201518160000160006101000a81548173ffffffffffffffffffffffffffffffffffffffff021916908373ffffffffffffffffffffffffffffffffffffffff1602179055506020820151816001019080519060200190610b02929190611170565b5060408201518160020160006101000a81548160ff02191690831515021790555050505050565b6060600260003373ffffffffffffffffffffffffffffffffffffffff1673ffffffffffffffffffffffffffffffffffffffff168152602001908152602001600020805480602002602001604051908101604052809291908181526020016000905b82821015610cbf57838290600052602060002090600302016040518060600160405290816000820160009054906101000a900473ffffffffffffffffffffffffffffffffffffffff1673ffffffffffffffffffffffffffffffffffffffff1673ffffffffffffffffffffffffffffffffffffffff168152602001600182018054610c13906118a7565b80601f0160208091040260200160405190810160405280929190818152602001828054610c3f906118a7565b8015610c8c5780601f10610c6157610100808354040283529160200191610c8c565b820191906000526020600020905b815481529060010190602001808311610c6f57829003601f168201915b505050505081526020016002820160009054906101000a900460ff16151515158152505081526020019060010190610b8a565b50505050905090565b80600360008473ffffffffffffffffffffffffffffffffffffffff1673ffffffffffffffffffffffffffffffffffffffff1681526020019081526020016000209080519060200190610d1b929190611170565b505050565b60606000600260008473ffffffffffffffffffffffffffffffffffffffff1673ffffffffffffffffffffffffffffffffffffffff168152602001908152602001600020805490506000808573ffffffffffffffffffffffffffffffffffffffff1673ffffffffffffffffffffffffffffffffffffffff16815260200190815260200160002080549050610db39190611a06565b905060008167ffffffffffffffff811115610dd157610dd06112a0565b5b604051908082528060200260200182016040528015610e0457816020015b6060815260200190600190039081610def5790505b5090506000805b6000808773ffffffffffffffffffffffffffffffffffffffff1673ffffffffffffffffffffffffffffffffffffffff16815260200190815260200160002080549050811015610f76576000808773ffffffffffffffffffffffffffffffffffffffff1673ffffffffffffffffffffffffffffffffffffffff1681526020019081526020016000208181548110610ea457610ea3611849565b5b906000526020600020018054610eb9906118a7565b80601f0160208091040260200160405190810160405280929190818152602001828054610ee5906118a7565b8015610f325780601f10610f0757610100808354040283529160200191610f32565b820191906000526020600020905b815481529060010190602001808311610f1557829003601f168201915b5050505050838381518110610f4a57610f49611849565b5b60200260200101819052508180610f60906119bd565b9250508080610f6e906119bd565b915050610e0b565b5060005b600260008773ffffffffffffffffffffffffffffffffffffffff1673ffffffffffffffffffffffffffffffffffffffff1681526020019081526020016000208054905081101561116457600260008773ffffffffffffffffffffffffffffffffffffffff1673ffffffffffffffffffffffffffffffffffffffff168152602001908152602001600020818154811061101557611014611849565b5b906000526020600020906003020160020160009054906101000a900460ff161561115157600260008773ffffffffffffffffffffffffffffffffffffffff1673ffffffffffffffffffffffffffffffffffffffff168152602001908152602001600020818154811061108a57611089611849565b5b906000526020600020906003020160010180546110a6906118a7565b80601f01602080910402602001604051908101604052809291908181526020018280546110d2906118a7565b801561111f5780601f106110f45761010080835404028352916020019161111f565b820191906000526020600020905b81548152906001019060200180831161110257829003601f168201915b505050505083838151811061113757611136611849565b5b6020026020010181905250818061114d906119bd565b9250505b808061115c906119bd565b915050610f7a565b50819350505050919050565b82805461117c906118a7565b90600052602060002090601f01602090048101928261119e57600085556111e5565b82601f106111b757805160ff19168380011785556111e5565b828001600101855582156111e5579182015b828111156111e45782518255916020019190600101906111c9565b5b5090506111f291906111f6565b5090565b5b8082111561120f5760008160009055506001016111f7565b5090565b6000604051905090565b600080fd5b600080fd5b600073ffffffffffffffffffffffffffffffffffffffff82169050919050565b600061125282611227565b9050919050565b61126281611247565b811461126d57600080fd5b50565b60008135905061127f81611259565b92915050565b600080fd5b600080fd5b6000601f19601f8301169050919050565b7f4e487b7100000000000000000000000000000000000000000000000000000000600052604160045260246000fd5b6112d88261128f565b810181811067ffffffffffffffff821117156112f7576112f66112a0565b5b80604052505050565b600061130a611213565b905061131682826112cf565b919050565b600067ffffffffffffffff821115611336576113356112a0565b5b61133f8261128f565b9050602081019050919050565b82818337600083830152505050565b600061136e6113698461131b565b611300565b90508281526020810184848401111561138a5761138961128a565b5b61139584828561134c565b509392505050565b600082601f8301126113b2576113b1611285565b5b81356113c284826020860161135b565b91505092915050565b600080604083850312156113e2576113e161121d565b5b60006113f085828601611270565b925050602083013567ffffffffffffffff81111561141157611410611222565b5b61141d8582860161139d565b9150509250929050565b60006020828403121561143d5761143c61121d565b5b600061144b84828501611270565b91505092915050565b600081519050919050565b600082825260208201905092915050565b60005b8381101561148e578082015181840152602081019050611473565b8381111561149d576000848401525b50505050565b60006114ae82611454565b6114b8818561145f565b93506114c8818560208601611470565b6114d18161128f565b840191505092915050565b600060208201905081810360008301526114f681846114a3565b905092915050565b600081519050919050565b600082825260208201905092915050565b6000819050602082019050919050565b61153381611247565b82525050565b600082825260208201905092915050565b600061155582611454565b61155f8185611539565b935061156f818560208601611470565b6115788161128f565b840191505092915050565b60008115159050919050565b61159881611583565b82525050565b60006060830160008301516115b6600086018261152a565b50602083015184820360208601526115ce828261154a565b91505060408301516115e3604086018261158f565b508091505092915050565b60006115fa838361159e565b905092915050565b6000602082019050919050565b600061161a826114fe565b6116248185611509565b9350836020820285016116368561151a565b8060005b85811015611672578484038952815161165385826115ee565b945061165e83611602565b925060208a0199505060018101905061163a565b50829750879550505050505092915050565b6000602082019050818103600083015261169e818461160f565b905092915050565b600081519050919050565b600082825260208201905092915050565b6000819050602082019050919050565b60006116de838361154a565b905092915050565b6000602082019050919050565b60006116fe826116a6565b61170881856116b1565b93508360208202850161171a856116c2565b8060005b85811015611756578484038952815161173785826116d2565b9450611742836116e6565b925060208a0199505060018101905061171e565b50829750879550505050505092915050565b6000602082019050818103600083015261178281846116f3565b905092915050565b600081905092915050565b60006117a082611454565b6117aa818561178a565b93506117ba818560208601611470565b80840191505092915050565b60006117d28284611795565b915081905092915050565b7f55524c206e6f74206f776e6564206279207468652073656e6465720000000000600082015250565b6000611813601b8361145f565b915061181e826117dd565b602082019050919050565b6000602082019050818103600083015261184281611806565b9050919050565b7f4e487b7100000000000000000000000000000000000000000000000000000000600052603260045260246000fd5b7f4e487b7100000000000000000000000000000000000000000000000000000000600052602260045260246000fd5b600060028204905060018216806118bf57607f821691505b602082108114156118d3576118d2611878565b5b50919050565b60008190508160005260206000209050919050565b600081546118fb816118a7565b611905818661178a565b94506001821660008114611920576001811461193157611964565b60ff19831686528186019350611964565b61193a856118d9565b60005b8381101561195c5781548189015260018201915060208101905061193d565b838801955050505b50505092915050565b600061197982846118ee565b915081905092915050565b7f4e487b7100000000000000000000000000000000000000000000000000000000600052601160045260246000fd5b6000819050919050565b60006119c8826119b3565b91507fffffffffffffffffffffffffffffffffffffffffffffffffffffffffffffffff8214156119fb576119fa611984565b5b600182019050919050565b6000611a11826119b3565b9150611a1c836119b3565b9250827fffffffffffffffffffffffffffffffffffffffffffffffffffffffffffffffff03821115611a5157611a50611984565b5b82820190509291505056fea26469706673582212205ba812b2f8dc84afbe2f10c2216137415f9155491549f5053938ab01d3beca5b64736f6c63430008090033",
  "linkReferences": {},
  "deployedLinkReferences": {}
}